{
  "_format": "hh-sol-artifact-1",
  "contractName": "MultiLottery",
  "sourceName": "contracts/MultiLottery.sol",
  "abi": [
    {
      "anonymous": false,
      "inputs": [
        {
          "indexed": false,
          "internalType": "uint256",
          "name": "lotteryId",
          "type": "uint256"
        },
        {
          "indexed": false,
          "internalType": "address",
          "name": "owner",
          "type": "address"
        }
      ],
      "name": "LotteryCreated",
      "type": "event"
    },
    {
      "anonymous": false,
      "inputs": [
        {
          "indexed": false,
          "internalType": "uint256",
          "name": "lotteryId",
          "type": "uint256"
        },
        {
          "indexed": false,
          "internalType": "address",
          "name": "player",
          "type": "address"
        }
      ],
      "name": "PlayerEntered",
      "type": "event"
    },
    {
      "anonymous": false,
      "inputs": [
        {
          "indexed": false,
          "internalType": "uint256",
          "name": "lotteryId",
          "type": "uint256"
        },
        {
          "indexed": false,
          "internalType": "address",
          "name": "winner",
          "type": "address"
        }
      ],
      "name": "WinnerPicked",
      "type": "event"
    },
    {
      "inputs": [],
      "name": "create",
      "outputs": [],
      "stateMutability": "nonpayable",
      "type": "function"
    },
    {
      "inputs": [
        {
          "internalType": "uint256",
          "name": "_lotteryId",
          "type": "uint256"
        }
      ],
      "name": "enter",
      "outputs": [],
      "stateMutability": "payable",
      "type": "function"
    },
    {
      "inputs": [],
      "name": "getAllLotteries",
      "outputs": [
        {
          "components": [
            {
              "internalType": "uint256",
              "name": "id",
              "type": "uint256"
            },
            {
              "internalType": "address",
              "name": "owner",
              "type": "address"
            },
            {
              "internalType": "address",
              "name": "winner",
              "type": "address"
            },
            {
              "internalType": "address[]",
              "name": "players",
              "type": "address[]"
            },
            {
              "internalType": "enum MultiLottery.Status",
              "name": "status",
              "type": "uint8"
            },
            {
              "internalType": "uint256",
              "name": "prizePool",
              "type": "uint256"
            }
          ],
          "internalType": "struct MultiLottery.Lottery[]",
          "name": "",
          "type": "tuple[]"
        }
      ],
      "stateMutability": "view",
      "type": "function"
    },
    {
      "inputs": [
        {
          "internalType": "uint256",
          "name": "_lotteryId",
          "type": "uint256"
        }
      ],
      "name": "getPlayersLottery",
      "outputs": [
        {
          "internalType": "address[]",
          "name": "",
          "type": "address[]"
        }
      ],
      "stateMutability": "view",
      "type": "function"
    },
    {
      "inputs": [
        {
          "internalType": "uint256",
          "name": "_lotteryId",
          "type": "uint256"
        }
      ],
      "name": "getRemainingTicketsLottery",
      "outputs": [
        {
          "internalType": "uint256",
          "name": "x",
          "type": "uint256"
        }
      ],
      "stateMutability": "view",
      "type": "function"
    },
    {
      "inputs": [
        {
          "internalType": "uint256",
          "name": "",
          "type": "uint256"
        }
      ],
      "name": "lotteries",
      "outputs": [
        {
          "internalType": "uint256",
          "name": "id",
          "type": "uint256"
        },
        {
          "internalType": "address",
          "name": "owner",
          "type": "address"
        },
        {
          "internalType": "address",
          "name": "winner",
          "type": "address"
        },
        {
          "internalType": "enum MultiLottery.Status",
          "name": "status",
          "type": "uint8"
        },
        {
          "internalType": "uint256",
          "name": "prizePool",
          "type": "uint256"
        }
      ],
      "stateMutability": "view",
      "type": "function"
    },
    {
      "inputs": [],
      "name": "lotteryCount",
      "outputs": [
        {
          "internalType": "uint256",
          "name": "",
          "type": "uint256"
        }
      ],
      "stateMutability": "view",
      "type": "function"
    },
    {
      "inputs": [],
      "name": "numTickets",
      "outputs": [
        {
          "internalType": "uint256",
          "name": "",
          "type": "uint256"
        }
      ],
      "stateMutability": "view",
      "type": "function"
    },
    {
      "inputs": [
        {
          "internalType": "uint256",
          "name": "_lotteryId",
          "type": "uint256"
        }
      ],
      "name": "pickWinner",
      "outputs": [],
      "stateMutability": "nonpayable",
      "type": "function"
    },
    {
      "inputs": [],
      "name": "ticketPrice",
      "outputs": [
        {
          "internalType": "uint256",
          "name": "",
          "type": "uint256"
        }
      ],
      "stateMutability": "view",
      "type": "function"
    }
  ],
  "bytecode": "0x60806040526005600055662386f26fc100006001556000600255348015602457600080fd5b50611763806100346000396000f3fe6080604052600436106100915760003560e01c8063a5773a4711610059578063a5773a47146101a7578063a59f3e0c146101d2578063c6f6d9d9146101ee578063efc81a8c14610219578063f737d21d1461023057610091565b80631209b1f6146100965780631398e076146100c1578063353d90ec1461010257806344f189661461012d57806360fb599c1461016a575b600080fd5b3480156100a257600080fd5b506100ab610259565b6040516100b89190610e49565b60405180910390f35b3480156100cd57600080fd5b506100e860048036038101906100e39190610e95565b61025f565b6040516100f9959493929190610f7a565b60405180910390f35b34801561010e57600080fd5b506101176102e2565b6040516101249190610e49565b60405180910390f35b34801561013957600080fd5b50610154600480360381019061014f9190610e95565b6102e8565b6040516101619190610e49565b60405180910390f35b34801561017657600080fd5b50610191600480360381019061018c9190610e95565b6103a1565b60405161019e919061108b565b60405180910390f35b3480156101b357600080fd5b506101bc610489565b6040516101c99190611285565b60405180910390f35b6101ec60048036038101906101e79190610e95565b6106cc565b005b3480156101fa57600080fd5b506102036108ba565b6040516102109190610e49565b60405180910390f35b34801561022557600080fd5b5061022e6108c0565b005b34801561023c57600080fd5b5061025760048036038101906102529190610e95565b610ad5565b005b60015481565b60036020528060005260406000206000915090508060000154908060010160009054906101000a900473ffffffffffffffffffffffffffffffffffffffff16908060020160009054906101000a900473ffffffffffffffffffffffffffffffffffffffff16908060040160009054906101000a900460ff16908060050154905085565b60005481565b60008060018111156102fd576102fc610f03565b5b6003600084815260200190815260200160002060040160009054906101000a900460ff16600181111561033357610332610f03565b5b14610373576040517f08c379a000000000000000000000000000000000000000000000000000000000815260040161036a90611304565b60405180910390fd5b600360008381526020019081526020016000206003018054905060005461039a9190611353565b9050919050565b606060025482106103e7576040517f08c379a00000000000000000000000000000000000000000000000000000000081526004016103de906113d3565b60405180910390fd5b6003600083815260200190815260200160002060030180548060200260200160405190810160405280929190818152602001828054801561047d57602002820191906000526020600020905b8160009054906101000a900473ffffffffffffffffffffffffffffffffffffffff1673ffffffffffffffffffffffffffffffffffffffff1681526020019060010190808311610433575b50505050509050919050565b6060600060025467ffffffffffffffff8111156104a9576104a86113f3565b5b6040519080825280602002602001820160405280156104e257816020015b6104cf610d15565b8152602001906001900390816104c75790505b50905060005b6002548110156106c457600360008281526020019081526020016000206040518060c0016040529081600082015481526020016001820160009054906101000a900473ffffffffffffffffffffffffffffffffffffffff1673ffffffffffffffffffffffffffffffffffffffff1673ffffffffffffffffffffffffffffffffffffffff1681526020016002820160009054906101000a900473ffffffffffffffffffffffffffffffffffffffff1673ffffffffffffffffffffffffffffffffffffffff1673ffffffffffffffffffffffffffffffffffffffff1681526020016003820180548060200260200160405190810160405280929190818152602001828054801561064b57602002820191906000526020600020905b8160009054906101000a900473ffffffffffffffffffffffffffffffffffffffff1673ffffffffffffffffffffffffffffffffffffffff1681526020019060010190808311610601575b505050505081526020016004820160009054906101000a900460ff16600181111561067957610678610f03565b5b600181111561068b5761068a610f03565b5b81526020016005820154815250508282815181106106ac576106ab611422565b5b602002602001018190525080806001019150506104e8565b508091505090565b6002548110610710576040517f08c379a0000000000000000000000000000000000000000000000000000000008152600401610707906113d3565b60405180910390fd5b6001543414610754576040517f08c379a000000000000000000000000000000000000000000000000000000000815260040161074b9061149d565b60405180910390fd5b60006003600083815260200190815260200160002090506000600181111561077f5761077e610f03565b5b8160040160009054906101000a900460ff1660018111156107a3576107a2610f03565b5b146107e3576040517f08c379a00000000000000000000000000000000000000000000000000000000081526004016107da90611509565b60405180910390fd5b80600301339080600181540180825580915050600190039060005260206000200160009091909190916101000a81548173ffffffffffffffffffffffffffffffffffffffff021916908373ffffffffffffffffffffffffffffffffffffffff1602179055503481600501600082825461085c9190611529565b925050819055507f6e9f398ae9148df17bf17280cd9379dd9d0951ed54567638d6b58230ef01d56f823360405161089492919061155d565b60405180910390a16000548160030180549050036108b6576108b582610ad5565b5b5050565b60025481565b6040518060c0016040528060025481526020013373ffffffffffffffffffffffffffffffffffffffff168152602001600073ffffffffffffffffffffffffffffffffffffffff168152602001600067ffffffffffffffff811115610927576109266113f3565b5b6040519080825280602002602001820160405280156109555781602001602082028036833780820191505090505b5081526020016000600181111561096f5761096e610f03565b5b815260200160008152506003600060025481526020019081526020016000206000820151816000015560208201518160010160006101000a81548173ffffffffffffffffffffffffffffffffffffffff021916908373ffffffffffffffffffffffffffffffffffffffff16021790555060408201518160020160006101000a81548173ffffffffffffffffffffffffffffffffffffffff021916908373ffffffffffffffffffffffffffffffffffffffff1602179055506060820151816003019080519060200190610a42929190610d89565b5060808201518160040160006101000a81548160ff02191690836001811115610a6e57610a6d610f03565b5b021790555060a082015181600501559050507f73ac9939c0fae9d35f1ff5450b52cb43bf0601ae6cc29f9d7eb5967b91e7505960025433604051610ab392919061155d565b60405180910390a160026000815480929190610ace90611586565b9190505550565b6000600360008381526020019081526020016000209050600081600301805490504244604051602001610b099291906115ef565b6040516020818303038152906040528051906020012060001c610b2c919061164a565b9050816003018181548110610b4457610b43611422565b5b9060005260206000200160009054906101000a900473ffffffffffffffffffffffffffffffffffffffff168260020160006101000a81548173ffffffffffffffffffffffffffffffffffffffff021916908373ffffffffffffffffffffffffffffffffffffffff16021790555060018260040160006101000a81548160ff02191690836001811115610bd957610bd8610f03565b5b021790555060008260020160009054906101000a900473ffffffffffffffffffffffffffffffffffffffff1673ffffffffffffffffffffffffffffffffffffffff168360050154604051610c2c906116ac565b60006040518083038185875af1925050503d8060008114610c69576040519150601f19603f3d011682016040523d82523d6000602084013e610c6e565b606091505b5050905080610cb2576040517f08c379a0000000000000000000000000000000000000000000000000000000008152600401610ca99061170d565b60405180910390fd5b7f7286599a58b2822d6e330944038c6d3424134069b04156404050720b942d87ee848460020160009054906101000a900473ffffffffffffffffffffffffffffffffffffffff16604051610d0792919061155d565b60405180910390a150505050565b6040518060c0016040528060008152602001600073ffffffffffffffffffffffffffffffffffffffff168152602001600073ffffffffffffffffffffffffffffffffffffffff1681526020016060815260200160006001811115610d7c57610d7b610f03565b5b8152602001600081525090565b828054828255906000526020600020908101928215610e02579160200282015b82811115610e015782518260006101000a81548173ffffffffffffffffffffffffffffffffffffffff021916908373ffffffffffffffffffffffffffffffffffffffff16021790555091602001919060010190610da9565b5b509050610e0f9190610e13565b5090565b5b80821115610e2c576000816000905550600101610e14565b5090565b6000819050919050565b610e4381610e30565b82525050565b6000602082019050610e5e6000830184610e3a565b92915050565b600080fd5b610e7281610e30565b8114610e7d57600080fd5b50565b600081359050610e8f81610e69565b92915050565b600060208284031215610eab57610eaa610e64565b5b6000610eb984828501610e80565b91505092915050565b600073ffffffffffffffffffffffffffffffffffffffff82169050919050565b6000610eed82610ec2565b9050919050565b610efd81610ee2565b82525050565b7f4e487b7100000000000000000000000000000000000000000000000000000000600052602160045260246000fd5b60028110610f4357610f42610f03565b5b50565b6000819050610f5482610f32565b919050565b6000610f6482610f46565b9050919050565b610f7481610f59565b82525050565b600060a082019050610f8f6000830188610e3a565b610f9c6020830187610ef4565b610fa96040830186610ef4565b610fb66060830185610f6b565b610fc36080830184610e3a565b9695505050505050565b600081519050919050565b600082825260208201905092915050565b6000819050602082019050919050565b61100281610ee2565b82525050565b60006110148383610ff9565b60208301905092915050565b6000602082019050919050565b600061103882610fcd565b6110428185610fd8565b935061104d83610fe9565b8060005b8381101561107e5781516110658882611008565b975061107083611020565b925050600181019050611051565b5085935050505092915050565b600060208201905081810360008301526110a5818461102d565b905092915050565b600081519050919050565b600082825260208201905092915050565b6000819050602082019050919050565b6110e281610e30565b82525050565b600082825260208201905092915050565b600061110482610fcd565b61110e81856110e8565b935061111983610fe9565b8060005b8381101561114a5781516111318882611008565b975061113c83611020565b92505060018101905061111d565b5085935050505092915050565b61116081610f59565b82525050565b600060c08301600083015161117e60008601826110d9565b5060208301516111916020860182610ff9565b5060408301516111a46040860182610ff9565b50606083015184820360608601526111bc82826110f9565b91505060808301516111d16080860182611157565b5060a08301516111e460a08601826110d9565b508091505092915050565b60006111fb8383611166565b905092915050565b6000602082019050919050565b600061121b826110ad565b61122581856110b8565b935083602082028501611237856110c9565b8060005b85811015611273578484038952815161125485826111ef565b945061125f83611203565b925060208a0199505060018101905061123b565b50829750879550505050505092915050565b6000602082019050818103600083015261129f8184611210565b905092915050565b600082825260208201905092915050565b7f4c6f7474657279206973206e6f74206163746976650000000000000000000000600082015250565b60006112ee6015836112a7565b91506112f9826112b8565b602082019050919050565b6000602082019050818103600083015261131d816112e1565b9050919050565b7f4e487b7100000000000000000000000000000000000000000000000000000000600052601160045260246000fd5b600061135e82610e30565b915061136983610e30565b925082820390508181111561138157611380611324565b5b92915050565b7f4c6f747465727920646f6573206e6f7420657869737400000000000000000000600082015250565b60006113bd6016836112a7565b91506113c882611387565b602082019050919050565b600060208201905081810360008301526113ec816113b0565b9050919050565b7f4e487b7100000000000000000000000000000000000000000000000000000000600052604160045260246000fd5b7f4e487b7100000000000000000000000000000000000000000000000000000000600052603260045260246000fd5b7f496e6e636f726563742070726963650000000000000000000000000000000000600082015250565b6000611487600f836112a7565b915061149282611451565b602082019050919050565b600060208201905081810360008301526114b68161147a565b9050919050565b7f4c6f747465727920697320636c6f736564000000000000000000000000000000600082015250565b60006114f36011836112a7565b91506114fe826114bd565b602082019050919050565b60006020820190508181036000830152611522816114e6565b9050919050565b600061153482610e30565b915061153f83610e30565b925082820190508082111561155757611556611324565b5b92915050565b60006040820190506115726000830185610e3a565b61157f6020830184610ef4565b9392505050565b600061159182610e30565b91507fffffffffffffffffffffffffffffffffffffffffffffffffffffffffffffffff82036115c3576115c2611324565b5b600182019050919050565b6000819050919050565b6115e96115e482610e30565b6115ce565b82525050565b60006115fb82856115d8565b60208201915061160b82846115d8565b6020820191508190509392505050565b7f4e487b7100000000000000000000000000000000000000000000000000000000600052601260045260246000fd5b600061165582610e30565b915061166083610e30565b9250826116705761166f61161b565b5b828206905092915050565b600081905092915050565b50565b600061169660008361167b565b91506116a182611686565b600082019050919050565b60006116b782611689565b9150819050919050565b7f455448207472616e73666572206661696c656400000000000000000000000000600082015250565b60006116f76013836112a7565b9150611702826116c1565b602082019050919050565b60006020820190508181036000830152611726816116ea565b905091905056fea2646970667358221220f94a963f94a61b0005baa0cb83343bf4d26771fe4a5df7aacebcc1b51ae7547164736f6c634300081c0033",
  "linkReferences": {},
  "deployedLinkReferences": {}
}